:020000040000FA
:100000000C945D000C9485000C9485000C94850084
:100010000C9485000C9485000C9485000C9485004C
:100020000C9485000C9485000C9485000C9485003C
:100030000C9485000C9485000C9485000C9485002C
:100040000C946B020C9485000C94DB020C94B502AA
:100050000C9485000C9485000C9485000C9485000C
:100060000C9485000C9485000000000024002700FB
:100070002A0000000000250028002B0004040404CE
:100080000404040402020202020203030303030342
:10009000010204081020408001020408102001021F
:1000A00004081020000000080002010000030407FB
:1000B0000000000000000000E80311241FBECFEF85
:1000C000D8E0DEBFCDBF11E0A0E0B1E0EAE3F8E0A8
:1000D00002C005900D92AE31B107D9F721E0AEE133
:1000E000B1E001C01D92A43CB207E1F710E0CDE5FC
:1000F000D0E004C02197FE010E941504CC35D10741
:10010000C9F70E940D030C941B040C94000090E0AE
:10011000FC01EC55FF4F2491FC01E057FF4F349157
:10012000FC01E458FF4FE491EE23C9F0222339F09B
:10013000233001F1A8F4213019F1223029F1F0E047
:10014000EE0FFF1FEE58FF4FA591B4918FB7F894B3
:10015000EC91611126C030953E233C938FBF0895EA
:100160002730A9F02830C9F0243049F78091800069
:100170008F7D03C0809180008F7780938000DFCFD8
:1001800084B58F7784BDDBCF84B58F7DFBCF809125
:10019000B0008F778093B000D2CF8091B0008F7D78
:1001A000F9CF3E2BDACF3FB7F8948091C001909100
:1001B000C101A091C201B091C30126B5A89B05C0A1
:1001C0002F3F19F00196A11DB11D3FBFBA2FA92FD6
:1001D000982F8827BC01CD01620F711D811D911DD3
:1001E00042E0660F771F881F991F4A95D1F708953F
:1001F0008F929F92AF92BF92CF92DF92EF92FF9237
:100200004B015C010E94D3006B017C010E94D30072
:100210006C197D098E099F09683E7340810591051F
:10022000A8F321E0821A9108A108B10888EEC80E4F
:1002300083E0D81EE11CF11C81149104A104B104D7
:1002400029F7FF90EF90DF90CF90BF90AF909F90F5
:100250008F900895AF92BF92CF92DF92EF92FF926C
:100260000F931F93CF93DF936C017B018B01040FDE
:10027000151FEB015E01AE18BF08C017D10759F07A
:100280006991D601ED91FC910190F081E02DC601BC
:100290000995892B79F7C501DF91CF911F910F91B6
:1002A000FF90EF90DF90CF90BF90AF900895FC014A
:1002B000538D448D252F30E0842F90E0821B930BCB
:1002C000541710F0CF96089501970895FC01918D71
:1002D000828D981761F0A28DAE0FBF2FB11D5D9674
:1002E0008C91928D9F5F9F73928F90E008958FEF16
:1002F0009FEF0895FC01918D828D981731F0828DCA
:10030000E80FF11D858D90E008958FEF9FEF089520
:10031000FC01918D228D892F90E0805C9F4F821B84
:1003200091098F73992708958EE191E00E948801C9
:1003300021E0892B09F420E0822F089580E090E0ED
:10034000892B29F00E94940181110C9400000895DA
:10035000FC01A48DA80FB92FB11DA35ABF4F2C913A
:10036000848D90E001968F739927848FA689B78931
:100370002C93A089B1898C91837080648C93938D28
:10038000848D981306C00288F389E02D80818F7DCB
:1003900080830895EF92FF920F931F93CF93DF9383
:1003A000EC0181E0888F9B8D8C8D98131AC0E889B1
:1003B000F989808185FF15C09FB7F894EE89FF8980
:1003C0006083E889F98980818370806480839FBF1E
:1003D00081E090E0DF91CF911F910F91FF90EF901E
:1003E0000895F62E0B8D10E00F5F1F4F0F7311272E
:1003F000E02E8C8D8E110CC00FB607FCFACFE88969
:10040000F989808185FFF5CFCE010E94A801F1CF47
:10041000EB8DEC0FFD2FF11DE35AFF4FF0829FB7DC
:10042000F8940B8FEA89FB8980818062CFCFCF93CC
:10043000DF93EC01888D8823B9F0AA89BB89E8890C
:10044000F9898C9185FD03C0808186FD0DC00FB6B2
:1004500007FCF7CF8C9185FFF2CF808185FFEDCF30
:10046000CE010E94A801E9CFDF91CF91089561E00C
:100470008AE00E94870083E090E00197F1F760E056
:100480008AE00E94870062E070E080E090E00C94D7
:10049000F8000F931F93CF93DF93082F60E08BE05A
:1004A0000E948700D0E0C0E010E0B8018C2F0C2E35
:1004B00002C0759567950A94E2F761708E5F0E949D
:1004C00087002196C830D10581F7DF91CF911F9128
:1004D0000F910C9437021F920F920FB60F921124B6
:1004E0002F933F938F939F93AF93BF938091BC01C2
:1004F0009091BD01A091BE01B091BF013091BB01AF
:1005000023E0230F2D3758F50196A11DB11D20932F
:10051000BB018093BC019093BD01A093BE01B09339
:10052000BF018091C0019091C101A091C201B09121
:10053000C3010196A11DB11D8093C0019093C1011B
:10054000A093C201B093C301BF91AF919F918F91CE
:100550003F912F910F900FBE0F901F90189526E896
:10056000230F0296A11DB11DD2CF1F920F920FB67D
:100570000F9211242F933F934F935F936F937F9329
:100580008F939F93AF93BF93EF93FF938EE191E08F
:100590000E94A801FF91EF91BF91AF919F918F9120
:1005A0007F916F915F914F913F912F910F900FBE6F
:1005B0000F901F9018951F920F920FB60F92112453
:1005C0002F938F939F93EF93FF93E0912E01F091E0
:1005D0002F018081E0913401F091350182FD1BC033
:1005E0009081809137018F5F8F732091380182173E
:1005F00041F0E0913701F0E0E25EFE4F958F80938D
:100600003701FF91EF919F918F912F910F900FBE26
:100610000F901F9018958081F4CF789484B58260F4
:1006200084BD84B5816084BD85B5826085BD85B596
:10063000816085BD80916E00816080936E00109214
:10064000810080918100826080938100809181008F
:100650008160809381008091800081608093800020
:100660008091B10084608093B1008091B00081607E
:100670008093B00080917A00846080937A008091AA
:100680007A00826080937A0080917A008160809302
:100690007A0080917A00806880937A001092C1007D
:1006A00022E030E0F901E057FF4F4491F901E458AE
:1006B000FF4F8491882399F090E0880F991FFC01E7
:1006C000E859FF4FA591B491FC01EE58FF4F859179
:1006D00094918FB7F894EC91E42BEC938FBF2F5F3C
:1006E0003F4F2C303105F1F6E0912E01F0912F01B2
:1006F00082E08083E0912A01F0912B011082E09149
:100700002C01F0912D018FEC808310923601E09145
:100710003201F091330186E08083E0913001F09165
:100720003101808180618083E0913001F09131015D
:10073000808188608083E0913001F0913101808177
:1007400080688083E0913001F091310180818F7D5C
:10075000808364E170E080E090E00E94F80088E32C
:100760000E9449028CE00E94490286E00E944902F0
:1007700081E00E94490262E070E080E090E00E9427
:10078000F80080E80E94490282E1E82E81E0F82E1C
:10079000F70101917F010023D1F061E08BE00E941D
:1007A0008700D0E0C0E010E0B8010C2E02C07595C3
:1007B00067950A94E2F761708C2F8E5F0E94870024
:1007C0002196C830D10581F70E943702E1CFFFCFD3
:1007D000EEE1F1E01382128288EE93E0A0E0B0E057
:1007E00084839583A683B78384E091E0918380839B
:1007F00085EC90E09587848784EC90E097878687E6
:1008000080EC90E0918B808B81EC90E0938B828BDD
:1008100082EC90E0958B848B86EC90E0978B868BB6
:10082000118E128E138E148E0895EE0FFF1F0590F9
:10083000F491E02D0994F894FFCF00000000CA0164
:100840002A0157011702880166017A014A6179611C
:080850007661726468616E00BC
:107E0000112484B714BE81FFF0D085E080938100F7
:107E100082E08093C00088E18093C10086E0809377
:107E2000C20080E18093C4008EE0C9D0259A86E02C
:107E300020E33CEF91E0309385002093840096BBD3
:107E4000B09BFECF1D9AA8958150A9F7CC24DD24C4
:107E500088248394B5E0AB2EA1E19A2EF3E0BF2EE7
:107E6000A2D0813461F49FD0082FAFD0023811F036
:107E7000013811F484E001C083E08DD089C08234E0
:107E800011F484E103C0853419F485E0A6D080C0E4
:107E9000853579F488D0E82EFF2485D0082F10E0AE
:107EA000102F00270E291F29000F111F8ED06801E7
:107EB0006FC0863521F484E090D080E0DECF843638
:107EC00009F040C070D06FD0082F6DD080E0C81688
:107ED00080E7D80618F4F601B7BEE895C0E0D1E017
:107EE00062D089930C17E1F7F0E0CF16F0E7DF06D8
:107EF00018F0F601B7BEE89568D007B600FCFDCFD4
:107F0000A601A0E0B1E02C9130E011968C91119780
:107F100090E0982F8827822B932B1296FA010C0160
:107F200087BEE89511244E5F5F4FF1E0A038BF0790
:107F300051F7F601A7BEE89507B600FCFDCF97BE46
:107F4000E89526C08437B1F42ED02DD0F82E2BD052
:107F50003CD0F601EF2C8F010F5F1F4F84911BD097
:107F6000EA94F801C1F70894C11CD11CFA94CF0C13
:107F7000D11C0EC0853739F428D08EE10CD085E9AC
:107F80000AD08FE07ACF813511F488E018D01DD067
:107F900080E101D065CF982F8091C00085FFFCCF94
:107FA0009093C60008958091C00087FFFCCF809118
:107FB000C00084FD01C0A8958091C6000895E0E648
:107FC000F0E098E1908380830895EDDF803219F02E
:107FD00088E0F5DFFFCF84E1DECF1F93182FE3DFCA
:107FE0001150E9F7F2DF1F91089580E0E8DFEE27F6
:047FF000FF270994CA
:027FFE00040479
:00000001FF
